{
  "_format": "hh-sol-artifact-1",
  "contractName": "WBTC",
  "sourceName": "contracts/wBTC.sol",
  "abi": [
    {
      "anonymous": false,
      "inputs": [
        {
          "indexed": true,
          "internalType": "address",
          "name": "owner",
          "type": "address"
        },
        {
          "indexed": true,
          "internalType": "address",
          "name": "spender",
          "type": "address"
        },
        {
          "indexed": false,
          "internalType": "uint256",
          "name": "value",
          "type": "uint256"
        }
      ],
      "name": "Approval",
      "type": "event"
    },
    {
      "anonymous": false,
      "inputs": [
        {
          "indexed": false,
          "internalType": "uint256",
          "name": "amount",
          "type": "uint256"
        }
      ],
      "name": "Burn",
      "type": "event"
    },
    {
      "anonymous": false,
      "inputs": [
        {
          "indexed": true,
          "internalType": "address",
          "name": "from",
          "type": "address"
        },
        {
          "indexed": true,
          "internalType": "address",
          "name": "to",
          "type": "address"
        },
        {
          "indexed": false,
          "internalType": "uint256",
          "name": "amount",
          "type": "uint256"
        }
      ],
      "name": "BurnWrappedStreak",
      "type": "event"
    },
    {
      "anonymous": false,
      "inputs": [
        {
          "indexed": false,
          "internalType": "uint256",
          "name": "amount",
          "type": "uint256"
        }
      ],
      "name": "Mint",
      "type": "event"
    },
    {
      "anonymous": false,
      "inputs": [
        {
          "indexed": true,
          "internalType": "address",
          "name": "from",
          "type": "address"
        },
        {
          "indexed": true,
          "internalType": "address",
          "name": "to",
          "type": "address"
        },
        {
          "indexed": false,
          "internalType": "uint256",
          "name": "amount",
          "type": "uint256"
        }
      ],
      "name": "MintWrappedStreak",
      "type": "event"
    },
    {
      "anonymous": false,
      "inputs": [
        {
          "indexed": true,
          "internalType": "address",
          "name": "from",
          "type": "address"
        },
        {
          "indexed": true,
          "internalType": "address",
          "name": "to",
          "type": "address"
        },
        {
          "indexed": false,
          "internalType": "uint256",
          "name": "value",
          "type": "uint256"
        }
      ],
      "name": "Transfer",
      "type": "event"
    },
    {
      "inputs": [
        {
          "internalType": "address",
          "name": "",
          "type": "address"
        },
        {
          "internalType": "address",
          "name": "",
          "type": "address"
        }
      ],
      "name": "allowance",
      "outputs": [
        {
          "internalType": "uint256",
          "name": "",
          "type": "uint256"
        }
      ],
      "stateMutability": "view",
      "type": "function"
    },
    {
      "inputs": [
        {
          "internalType": "address",
          "name": "spender",
          "type": "address"
        },
        {
          "internalType": "uint256",
          "name": "amount",
          "type": "uint256"
        }
      ],
      "name": "approve",
      "outputs": [
        {
          "internalType": "bool",
          "name": "",
          "type": "bool"
        }
      ],
      "stateMutability": "nonpayable",
      "type": "function"
    },
    {
      "inputs": [
        {
          "internalType": "address",
          "name": "",
          "type": "address"
        }
      ],
      "name": "balanceOf",
      "outputs": [
        {
          "internalType": "uint256",
          "name": "",
          "type": "uint256"
        }
      ],
      "stateMutability": "view",
      "type": "function"
    },
    {
      "inputs": [
        {
          "internalType": "uint256",
          "name": "amount",
          "type": "uint256"
        }
      ],
      "name": "burn",
      "outputs": [],
      "stateMutability": "nonpayable",
      "type": "function"
    },
    {
      "inputs": [
        {
          "internalType": "address",
          "name": "to",
          "type": "address"
        },
        {
          "internalType": "uint256",
          "name": "amount",
          "type": "uint256"
        }
      ],
      "name": "burnWrapped",
      "outputs": [
        {
          "internalType": "bool",
          "name": "",
          "type": "bool"
        }
      ],
      "stateMutability": "nonpayable",
      "type": "function"
    },
    {
      "inputs": [
        {
          "internalType": "uint256",
          "name": "amount",
          "type": "uint256"
        }
      ],
      "name": "mint",
      "outputs": [],
      "stateMutability": "nonpayable",
      "type": "function"
    },
    {
      "inputs": [
        {
          "internalType": "address",
          "name": "from",
          "type": "address"
        },
        {
          "internalType": "address",
          "name": "to",
          "type": "address"
        },
        {
          "internalType": "uint256",
          "name": "amount",
          "type": "uint256"
        }
      ],
      "name": "mintWrapped",
      "outputs": [
        {
          "internalType": "bool",
          "name": "",
          "type": "bool"
        }
      ],
      "stateMutability": "nonpayable",
      "type": "function"
    },
    {
      "inputs": [],
      "name": "name",
      "outputs": [
        {
          "internalType": "string",
          "name": "",
          "type": "string"
        }
      ],
      "stateMutability": "view",
      "type": "function"
    },
    {
      "inputs": [],
      "name": "owner",
      "outputs": [
        {
          "internalType": "address",
          "name": "",
          "type": "address"
        }
      ],
      "stateMutability": "view",
      "type": "function"
    },
    {
      "inputs": [],
      "name": "symbol",
      "outputs": [
        {
          "internalType": "string",
          "name": "",
          "type": "string"
        }
      ],
      "stateMutability": "view",
      "type": "function"
    },
    {
      "inputs": [],
      "name": "totalSupply",
      "outputs": [
        {
          "internalType": "uint256",
          "name": "",
          "type": "uint256"
        }
      ],
      "stateMutability": "view",
      "type": "function"
    },
    {
      "inputs": [
        {
          "internalType": "address",
          "name": "recipient",
          "type": "address"
        },
        {
          "internalType": "uint256",
          "name": "amount",
          "type": "uint256"
        }
      ],
      "name": "transfer",
      "outputs": [
        {
          "internalType": "bool",
          "name": "",
          "type": "bool"
        }
      ],
      "stateMutability": "nonpayable",
      "type": "function"
    },
    {
      "inputs": [
        {
          "internalType": "address",
          "name": "sender",
          "type": "address"
        },
        {
          "internalType": "address",
          "name": "recipient",
          "type": "address"
        },
        {
          "internalType": "uint256",
          "name": "amount",
          "type": "uint256"
        }
      ],
      "name": "transferFrom",
      "outputs": [
        {
          "internalType": "bool",
          "name": "",
          "type": "bool"
        }
      ],
      "stateMutability": "nonpayable",
      "type": "function"
    }
  ],
  "bytecode": "0x60806040526040518060400160405280600b81526020017f5772617070656420425443000000000000000000000000000000000000000000815250600490816200004a919062000320565b506040518060400160405280600481526020017f57425443000000000000000000000000000000000000000000000000000000008152506005908162000091919062000320565b503480156200009f57600080fd5b5062000407565b600081519050919050565b7f4e487b7100000000000000000000000000000000000000000000000000000000600052604160045260246000fd5b7f4e487b7100000000000000000000000000000000000000000000000000000000600052602260045260246000fd5b600060028204905060018216806200012857607f821691505b6020821081036200013e576200013d620000e0565b5b50919050565b60008190508160005260206000209050919050565b60006020601f8301049050919050565b600082821b905092915050565b600060088302620001a87fffffffffffffffffffffffffffffffffffffffffffffffffffffffffffffffff8262000169565b620001b4868362000169565b95508019841693508086168417925050509392505050565b6000819050919050565b6000819050919050565b600062000201620001fb620001f584620001cc565b620001d6565b620001cc565b9050919050565b6000819050919050565b6200021d83620001e0565b620002356200022c8262000208565b84845462000176565b825550505050565b600090565b6200024c6200023d565b6200025981848462000212565b505050565b5b8181101562000281576200027560008262000242565b6001810190506200025f565b5050565b601f821115620002d0576200029a8162000144565b620002a58462000159565b81016020851015620002b5578190505b620002cd620002c48562000159565b8301826200025e565b50505b505050565b600082821c905092915050565b6000620002f560001984600802620002d5565b1980831691505092915050565b6000620003108383620002e2565b9150826002028217905092915050565b6200032b82620000a6565b67ffffffffffffffff811115620003475762000346620000b1565b5b6200035382546200010f565b6200036082828562000285565b600060209050601f83116001811462000398576000841562000383578287015190505b6200038f858262000302565b865550620003ff565b601f198416620003a88662000144565b60005b82811015620003d257848901518255600182019150602085019450602081019050620003ab565b86831015620003f25784890151620003ee601f891682620002e2565b8355505b6001600288020188555050505b505050505050565b6110c480620004176000396000f3fe608060405234801561001057600080fd5b50600436106100cf5760003560e01c806370a082311161008c57806395d89b411161006657806395d89b411461023a578063a0712d6814610258578063a9059cbb14610274578063dd62ed3e146102a4576100cf565b806370a08231146101bc5780637a75f8f6146101ec5780638da5cb5b1461021c576100cf565b806306fdde03146100d4578063095ea7b3146100f257806318160ddd1461012257806323b872dd1461014057806342966c681461017057806368648c221461018c575b600080fd5b6100dc6102d4565b6040516100e99190610be1565b60405180910390f35b61010c60048036038101906101079190610c9c565b610362565b6040516101199190610cf7565b60405180910390f35b61012a610454565b6040516101379190610d21565b60405180910390f35b61015a60048036038101906101559190610d3c565b61045a565b6040516101679190610cf7565b60405180910390f35b61018a60048036038101906101859190610d8f565b61060b565b005b6101a660048036038101906101a19190610c9c565b61065e565b6040516101b39190610cf7565b60405180910390f35b6101d660048036038101906101d19190610dbc565b6107e8565b6040516101e39190610d21565b60405180910390f35b61020660048036038101906102019190610d3c565b610800565b6040516102139190610cf7565b60405180910390f35b61022461090a565b6040516102319190610df8565b60405180910390f35b61024261092e565b60405161024f9190610be1565b60405180910390f35b610272600480360381019061026d9190610d8f565b6109bc565b005b61028e60048036038101906102899190610c9c565b610a0f565b60405161029b9190610cf7565b60405180910390f35b6102be60048036038101906102b99190610e13565b610b2c565b6040516102cb9190610d21565b60405180910390f35b600480546102e190610e82565b80601f016020809104026020016040519081016040528092919081815260200182805461030d90610e82565b801561035a5780601f1061032f5761010080835404028352916020019161035a565b820191906000526020600020905b81548152906001019060200180831161033d57829003601f168201915b505050505081565b600081600360003373ffffffffffffffffffffffffffffffffffffffff1673ffffffffffffffffffffffffffffffffffffffff16815260200190815260200160002060008573ffffffffffffffffffffffffffffffffffffffff1673ffffffffffffffffffffffffffffffffffffffff168152602001908152602001600020819055508273ffffffffffffffffffffffffffffffffffffffff163373ffffffffffffffffffffffffffffffffffffffff167f8c5be1e5ebec7d5bd14f71427d1e84f3dd0314c0f7b2291e5b200ac8c7c3b925846040516104429190610d21565b60405180910390a36001905092915050565b60015481565b600081600360008673ffffffffffffffffffffffffffffffffffffffff1673ffffffffffffffffffffffffffffffffffffffff16815260200190815260200160002060003373ffffffffffffffffffffffffffffffffffffffff1673ffffffffffffffffffffffffffffffffffffffff16815260200190815260200160002060008282546104e89190610ee2565b9250508190555081600260008673ffffffffffffffffffffffffffffffffffffffff1673ffffffffffffffffffffffffffffffffffffffff168152602001908152602001600020600082825461053e9190610ee2565b9250508190555081600260008573ffffffffffffffffffffffffffffffffffffffff1673ffffffffffffffffffffffffffffffffffffffff16815260200190815260200160002060008282546105949190610f16565b925050819055508273ffffffffffffffffffffffffffffffffffffffff168473ffffffffffffffffffffffffffffffffffffffff167fddf252ad1be2c89b69c2b068fc378daa952ba7f163c4a11628f55a4df523b3ef846040516105f89190610d21565b60405180910390a3600190509392505050565b806001600082825461061d9190610ee2565b925050819055507fb90306ad06b2a6ff86ddc9327db583062895ef6540e62dc50add009db5b356eb816040516106539190610d21565b60405180910390a150565b60008082116106a2576040517f08c379a000000000000000000000000000000000000000000000000000000000815260040161069990610f96565b60405180910390fd5b81600260003373ffffffffffffffffffffffffffffffffffffffff1673ffffffffffffffffffffffffffffffffffffffff168152602001908152602001600020541015610724576040517f08c379a000000000000000000000000000000000000000000000000000000000815260040161071b90611002565b60405180910390fd5b81600260003373ffffffffffffffffffffffffffffffffffffffff1673ffffffffffffffffffffffffffffffffffffffff16815260200190815260200160002060008282546107739190610ee2565b925050819055508273ffffffffffffffffffffffffffffffffffffffff163373ffffffffffffffffffffffffffffffffffffffff167ee25c7691685073668f42613ea2c0ee39b869fb22ce646df20f750c7d041137846040516107d69190610d21565b60405180910390a36001905092915050565b60026020528060005260406000206000915090505481565b6000808211610844576040517f08c379a000000000000000000000000000000000000000000000000000000000815260040161083b9061106e565b60405180910390fd5b81600260008573ffffffffffffffffffffffffffffffffffffffff1673ffffffffffffffffffffffffffffffffffffffff16815260200190815260200160002060008282546108939190610f16565b925050819055508273ffffffffffffffffffffffffffffffffffffffff168473ffffffffffffffffffffffffffffffffffffffff167f97ab3a1972058a097aa7b39c06e351fcf1142619191a38bca8871303ef5acc9d846040516108f79190610d21565b60405180910390a3600190509392505050565b60008054906101000a900473ffffffffffffffffffffffffffffffffffffffff1681565b6005805461093b90610e82565b80601f016020809104026020016040519081016040528092919081815260200182805461096790610e82565b80156109b45780601f10610989576101008083540402835291602001916109b4565b820191906000526020600020905b81548152906001019060200180831161099757829003601f168201915b505050505081565b80600160008282546109ce9190610f16565b925050819055507f07883703ed0e86588a40d76551c92f8a4b329e3bf19765e0e6749473c1a8466581604051610a049190610d21565b60405180910390a150565b600081600260003373ffffffffffffffffffffffffffffffffffffffff1673ffffffffffffffffffffffffffffffffffffffff1681526020019081526020016000206000828254610a609190610ee2565b9250508190555081600260008573ffffffffffffffffffffffffffffffffffffffff1673ffffffffffffffffffffffffffffffffffffffff1681526020019081526020016000206000828254610ab69190610f16565b925050819055508273ffffffffffffffffffffffffffffffffffffffff163373ffffffffffffffffffffffffffffffffffffffff167fddf252ad1be2c89b69c2b068fc378daa952ba7f163c4a11628f55a4df523b3ef84604051610b1a9190610d21565b60405180910390a36001905092915050565b6003602052816000526040600020602052806000526040600020600091509150505481565b600081519050919050565b600082825260208201905092915050565b60005b83811015610b8b578082015181840152602081019050610b70565b60008484015250505050565b6000601f19601f8301169050919050565b6000610bb382610b51565b610bbd8185610b5c565b9350610bcd818560208601610b6d565b610bd681610b97565b840191505092915050565b60006020820190508181036000830152610bfb8184610ba8565b905092915050565b600080fd5b600073ffffffffffffffffffffffffffffffffffffffff82169050919050565b6000610c3382610c08565b9050919050565b610c4381610c28565b8114610c4e57600080fd5b50565b600081359050610c6081610c3a565b92915050565b6000819050919050565b610c7981610c66565b8114610c8457600080fd5b50565b600081359050610c9681610c70565b92915050565b60008060408385031215610cb357610cb2610c03565b5b6000610cc185828601610c51565b9250506020610cd285828601610c87565b9150509250929050565b60008115159050919050565b610cf181610cdc565b82525050565b6000602082019050610d0c6000830184610ce8565b92915050565b610d1b81610c66565b82525050565b6000602082019050610d366000830184610d12565b92915050565b600080600060608486031215610d5557610d54610c03565b5b6000610d6386828701610c51565b9350506020610d7486828701610c51565b9250506040610d8586828701610c87565b9150509250925092565b600060208284031215610da557610da4610c03565b5b6000610db384828501610c87565b91505092915050565b600060208284031215610dd257610dd1610c03565b5b6000610de084828501610c51565b91505092915050565b610df281610c28565b82525050565b6000602082019050610e0d6000830184610de9565b92915050565b60008060408385031215610e2a57610e29610c03565b5b6000610e3885828601610c51565b9250506020610e4985828601610c51565b9150509250929050565b7f4e487b7100000000000000000000000000000000000000000000000000000000600052602260045260246000fd5b60006002820490506001821680610e9a57607f821691505b602082108103610ead57610eac610e53565b5b50919050565b7f4e487b7100000000000000000000000000000000000000000000000000000000600052601160045260246000fd5b6000610eed82610c66565b9150610ef883610c66565b9250828203905081811115610f1057610f0f610eb3565b5b92915050565b6000610f2182610c66565b9150610f2c83610c66565b9250828201905080821115610f4457610f43610eb3565b5b92915050565b7f4532000000000000000000000000000000000000000000000000000000000000600082015250565b6000610f80600283610b5c565b9150610f8b82610f4a565b602082019050919050565b60006020820190508181036000830152610faf81610f73565b9050919050565b7f4533000000000000000000000000000000000000000000000000000000000000600082015250565b6000610fec600283610b5c565b9150610ff782610fb6565b602082019050919050565b6000602082019050818103600083015261101b81610fdf565b9050919050565b7f4531000000000000000000000000000000000000000000000000000000000000600082015250565b6000611058600283610b5c565b915061106382611022565b602082019050919050565b600060208201905081810360008301526110878161104b565b905091905056fea2646970667358221220c90014b69f95a15e185c3cda0ad82f864f1b151d73be963a49d357db541f3bed64736f6c63430008110033",
  "linkReferences": {},
  "deployedLinkReferences": {}
}